:020000040800F2
:10000000487B00246D030008394C00084143000878
:10001000314C0008A9070008F15500080000000055
:10002000000000000000000000000000C1500008B7
:10003000B107000800000000B14C00085951000849
:100040008B0300088B0300088B0300088B03000858
:100050008B0300088B0300088B0300088B03000848
:100060008B0300088B0300088B0300088B03000838
:100070008B0300088B0300088B0300088B03000828
:100080008B0300088B0300088B0300088B03000818
:100090008B0300088B0300088B0300088B03000808
:1000A0008B0300088B0300088B0300088B030008F8
:1000B0008B0300088B0300088B0300088B030008E8
:1000C0008B0300088B0300088B0300088B030008D8
:1000D0008B0300088B0300088B0300088B030008C8
:1000E0008B0300088B030008000000008B0300084E
:1000F0008B0300088B0300088B0300088B030008A8
:100100008B0300088B0300088B0300088B03000897
:100110008B0300088B0300088B0300083954000888
:100120008B0300088B0300088B0300088B03000877
:100130008B0300088B0300088B0300088B03000867
:1001400000000000000000000000000000000000AF
:100150008B0300088B0300088B0300088B03000847
:100160008B0300088B0300088B0300088B03000837
:100170008B0300088B0300088B03000800000000BD
:100180008B0300088B0300088B0300088B03000817
:100190008B0300088B0300088B0300088B03000807
:1001A0008B0300088B0300088B0300088B030008F7
:1001B0008B0300088B0300088B0300088B030008E7
:1001C0008B0300088B0300088B0300088B030008D7
:1001D0008B0300088B0300088B0300088B030008C7
:1001E0008B0300088B0300088B0300088B030008B7
:1001F0008B0300088B0300088B0300088B030008A7
:100200008B0300088B0300088B0300088B03000896
:100210008B0300088B0300088B0300088B03000886
:100220008B0300088B0300088B030008000000000C
:100230008B0300088B030008000000008B030008FC
:100240008B0300088B0300088B0300088B03000856
:100250008B0300088B0300088B0300088B03000846
:100260008B0300088B0300088B0300088B03000836
:100270008B0300088B0300088B03000800000000BC
:100280008B0300088B0300088B03000800000000AC
:10029000000000008B03000800F002F800F056F8A0
:1002A00014A696E8000CB244B344DA4501D100F03C
:1002B0004DF8BAE80F000FA696E83000A5EB04054C
:1002C00004EB0607AAEB0704A7F101074FEA15158F
:1002D0004FEA3414A4F10104AC4201D300F036F823
:1002E00013F0010F18BFFB1A43F0010300F001F8EF
:1002F000DBE71847F483000014840000103A24BFA1
:1003000078C878C1FAD8520724BF30C830C144BF7A
:1003100004680C6070470000704700000023002450
:1003200000250026103A28BF78C1FBD8520728BF05
:1003300030C148BF0B6070471FB508F09DF99DE8BC
:10034000030000F021F91FBD10B510BD00F0AAF99F
:100350001146FFF7F1FF05F0C3FA00F0C8F903B446
:10036000FFF7F2FF03BC00F0F9F900000A488047EC
:100370000A4880470A480047FEE7FEE7FEE7FEE737
:10038000FEE7FEE7FEE7FEE7FEE7FEE70548064973
:10039000064A074B70470000C9070008A952000829
:1003A00099020008484B0024487B0024486B002435
:1003B000486B002470B5064600F0CAF8056806F1DF
:1003C0000B0020F00704B4429CBF002070BD2B46F8
:1003D0006A68BAB11068A04210D304F108018842DB
:1003E0003CBF5068586007D35168101941601168CC
:1003F000091B016058601460101D70BD13465268DF
:10040000002AE7D12146284600F0AAF80028DED1CC
:1004100070BD70B50446051F00F09AF80068002C06
:1004200014BF446870BD002C18BFAC423CBF2046CE
:100430006468F8D301680A18AA4218BF456003D15E
:100440002A6805461144016028684119A1421CBF71
:100450006C6070BD6168696021680844286070BD87
:10046000032A40F2308010F0030C00F0158011F8E0
:10047000013BBCF1020F624498BF11F801CB00F8B8
:10048000013B38BF11F8013BA2F1040298BF00F80C
:1004900001CB38BF00F8013B11F0030300F0A98045
:1004A000083AC0F0088051F8043B083A51F804CBF0
:1004B000A0E80810F5E7121D5CBF51F8043B40F8B6
:1004C000043BAFF30080D20724BF11F8013B11F8C1
:1004D00001CB48BF11F8012B24BF00F8013B00F805
:1004E00001CB48BF00F8012B704702F0FF0343EA3D
:1004F000032242EA024200F002B84FF0000200B5C7
:10050000134694469646203922BFA0E80C50A0E836
:100510000C50B1F12001BFF4F7AF090728BFA0E8E4
:100520000C5048BF0CC05DF804EB890028BF40F8B0
:10053000042B08BF704748BF20F8022B11F0804FF2
:1005400018BF00F8012B70477047704770470000D4
:10055000004870472000002470477047704770477C
:1005600038B504460A4600206946AFF300800028EB
:1005700008BF38BD02460099204600F071F80120FE
:1005800038BD012000F086B8F8B5AFF3008005460D
:1005900000200C460C2000BF0646A819A0420DD929
:1005A000324669460020AFF30080070008BF00F024
:1005B00071F80098A04218BF0546C419FFF7C8FF9C
:1005C00005600746F01D20F007004619284600F098
:1005D0000AF8B44208BFF8BDA21B31463868BDE82E
:1005E000F84000F03DB800210160416070470C20E8
:1005F000704710B5203AC0F00B80B1E81850A0E861
:100600001850B1E81850A0E81850203ABFF4F5AFE0
:100610005FEA027C24BFB1E81850A0E8185044BF3C
:1006200018C918C0BDE810405FEA827C24BF51F8A9
:10063000043B40F8043B08BF7047D20728BF31F89D
:10064000023B48BF11F8012B28BF20F8023B48BFEE
:1006500000F8012B70470000004870471800002484
:10066000034640688C46002818BF88423CBF0346BA
:100670004068F8D318681844884207D00CF103008A
:1006800020F00700001D411A521A0146081D0A6099
:10069000FFF7BFBE10B500F039F8BDE8104000F01C
:1006A0002FB870477546FFF7D7FFAE46050069467D
:1006B000534620F00700854618B020B5FFF766FEC8
:1006C000BDE820404FF000064FF000074FF0000853
:1006D0004FF0000BAC46ACE8C009ACE8C009ACE890
:1006E000C009ACE8C00921F007018D46704710B57C
:1006F0000446AFF300802046BDE81040FFF72FBE50
:10070000002801D000F02AB87047000010B5012879
:1007100005D0002103A000F027F8012010BD09A199
:10072000F8E7000053494752544D454D3A204F7564
:1007300074206F662068656170206D656D6F7279D9
:10074000000000003A2048656170206D656D6F7291
:100750007920636F727275707465640001491820A6
:10076000ABBEFEE72600020070B505460C460A2027
:1007700000E06D1C00F011F835B128780028F8D1A0
:1007800002E0641C00F009F814B120780028F8D1C8
:10079000BDE870400A20AFF3008008B569468DF8C7
:1007A00000000320ABBE08BDFFE7FEE7000000002D
:1007B000704700000000000081B0EFF3108072B6B7
:1007C0000090FFE7FEE7000044F60C01C5F60201C9
:1007D000086840F002000860FFE744F60400C5F630
:1007E000020000688004002801D4FFE7F5E77047A5
:1007F00080B583B0029001910198006800BBFFE7CB
:100800000298006847F6FF718843019A0092516888
:10081000D2F808E0D2F80CC0136941EA0E0141EAAF
:100820000C0119435369194393691943D369194357
:10083000136A1943526A114308430299086025E07C
:100840000298006820F4F840019AD169136A526A4C
:10085000194311430843029908600298406847F61B
:10086000FF718843019A5168D2F808E0D2F80CC0B1
:10087000136941EA0E0141EA0C0119435369194316
:1008800092691143084302994860FFE7002003B0D2
:1008900080BD00000000000082B00190009101982E
:1008A000406943F6FE718843009940EA410001998E
:1008B0004861002002B0704783B00290019100921D
:1008C000029800696FF31500019A11685368D2F815
:1008D00008C0D26819436FF01F0303EB4C13194390
:1008E00041EA4221084302990861002003B07047A1
:1008F00010B583B00290019100920098A8BBFFE769
:100900000298806800F07040019A11685468D2F82B
:1009100008E0D2F80CC001396FF00F0303EB0413A9
:1009200019436FF0FF0303EB0E2319434FF200034B
:10093000CFF6FF7303EB0C331943D2F810C000233A
:10094000CFF6FF7303EB0C431943D2F814C0002316
:10095000CFF6F07303EB0C5319439269013A41EA65
:1009600002610843029988603CE00298806840F682
:10097000FF71CFF60F7108400199CA684B694FF2B9
:100980000001CFF6FF7101EB02310022CFF6F072C9
:1009900002EB035211430843029988600298C06831
:1009A00000F07040019A11685468D2F808E0D2F85B
:1009B00010C001396FF00F0303EB041319436FF0FC
:1009C000FF0303EB0E2319430023CFF6FF7303EB62
:1009D0000C4319439269013A41EA026108430299C2
:1009E000C860FFE7002003B010BD00000000000059
:1009F00080B582B00090009820B9FFE701208DF803
:100A000007004FE0009890F8610040B9FFE70099B7
:100A1000002081F86000009800F04AF8FFE7009994
:100A2000022081F861000098006800684FF6BF71ED
:100A3000CFF6F8710840009B19685A68DB691A43C1
:100A40001043086000980068406B40F2071188432B
:100A5000009B19689A689B691A4310434863009881
:100A60000068006C4FF6FF718843009A1168D268E5
:100A70001043086400980068406B20F44010009B0D
:100A800019681A695B69120542EA435210434863C8
:100A9000009900204866009A012182F861108DF8C3
:100AA0000700FFE79DF8070002B080BD00000000CE
:100AB00082B001900198006841F20001C5F2002166
:100AC000884210D1FFE7FFE744F2D440C5F60200A8
:100AD000016841F010010160006800F01000009012
:100AE0000098FFE7FFE702B0704700000000000039
:100AF00080B584B0039000F0CBFA02900398019087
:100B00000198013048B1FFE740F20800C2F200400E
:100B10000178019808440190FFE7FFE700F0B8FA78
:100B20000299401A0199884201D2FFE7F6E704B022
:100B300080BD00000000000080B5BEB000203D90E8
:100B40003C903B903A90399040F27800C2F20040DD
:100B5000006808B1FFE793E040F27801C2F200417B
:100B60000120086008A80690C021FFF7C6FC06987F
:100B7000002109914FF0807208921A9100F0A8FEAE
:100B800018B1FFE7FFF718FEFFE7FFE744F2D44094
:100B9000C5F60200016841F480510160006800F46C
:100BA000805007900798FFE74FF63F0039900220EA
:100BB00001903A90002002903B90032003903C90DB
:100BC0000C2004903D9041F20040C5F6020039A986
:100BD000059100F059F8DDF804C0029B039A0498CF
:100BE00005994FF02C0ECDF8E4E0CDF8E8C03B932A
:100BF0003C923D9041F60040C5F6020000F044F8FA
:100C0000DDF804C0029B039A0498059948F2371E48
:100C1000CDF8E4E0CDF8E8C03B933C923D9041F63E
:100C20000000C5F6020000F02FF8DDF804C0029BBA
:100C3000039A049805994FF6837ECDF8E4E0CDF849
:100C4000E8C03B933C923D9041F20000C5F60200A3
:100C500000F01AF8DDF804C0029B039A0498059985
:100C60004CF2037ECDF8E4E0CDF8E8C03B933C9233
:100C70003D9040F60040C5F6020000F005F8FFE7A1
:100C80003EB080BD0000000090B00F900E9100209B
:100C90000D908020C5F600000A90FFE70E980068CE
:100CA0000D99C840002800F0CF81FFE70E9800683A
:100CB0000D9A0121914008400C900C98002800F0FA
:100CC000BF81FFE70E98406800F00300012807D0BD
:100CD000FFE70E98406800F0030002282FD1FFE7DD
:100CE0000F9880680B900D984100032000FA01F1E5
:100CF0000B9888430B900E98C0680D99490000FA34
:100D000001F10B9808430B900B980F9988600F988E
:100D100040680B900D99012000FA01F10B9888436F
:100D20000B900E984068C0F300100D9900FA01F185
:100D30000B9808430B900B980F994860FFE70E98AB
:100D4000406800F00300032818D0FFE70F98C06840
:100D50000B900D984100032000FA01F10B98884395
:100D60000B900E9880680D99490000FA01F10B98DC
:100D700008430B900B980F99C860FFE70E984068E6
:100D800000F00300022826D1FFE70F980D996FF0BD
:100D9000030202EA51010844006A0B900D9800F02A
:100DA000070081000F2000FA01F10B9888430B9097
:100DB0000E9800690D9901F00701890000FA01F110
:100DC0000B9808430B900B980F990D9B02EA530266
:100DD00011440862FFE70F9800680B900D984100DE
:100DE000032000FA01F10B9888430B900E9840689D
:100DF00000F003000D99490000FA01F10B98084337
:100E00000B900B980F9908600E9880798007002846
:100E100000F01581FFE7FFE744F2F440C5F6020059
:100E2000016841F002010160006800F002000990D1
:100E30000998FFE70D9820F0030040F20841C5F63D
:100E4000000140580B900D9800F0030081000F2026
:100E500000FA01F10B9888430B900F980021C5F61A
:100E60000201884203D1FFE7002008907AE00F9842
:100E700040F20041C5F60201884203D1FFE701209C
:100E800007906CE00F9840F60001C5F60201884219
:100E900003D1FFE7022006905EE00F9840F6004184
:100EA000C5F60201884203D1FFE70320059050E018
:100EB0000F9841F20001C5F60201884203D1FFE715
:100EC0000420049042E00F9841F20041C5F602016F
:100ED000884203D1FFE70520039034E00F9841F6E4
:100EE0000001C5F60201884203D1FFE70620029007
:100EF00026E00F9841F60041C5F60201884203D171
:100F0000FFE70720019018E00F9842F20001C5F6B4
:100F10000201884203D1FFE7082000900AE00F9900
:100F200042F20042C5F602020A20914208BF09209F
:100F30000090FFE700980190FFE701980290FFE71B
:100F400002980390FFE703980490FFE70498059048
:100F5000FFE705980690FFE706980790FFE70798D8
:100F60000890FFE708980D9901F00301890000FA45
:100F700001F10B9808430B900B980D9921F0030198
:100F800040F20842C5F6000288504FF0B0400068B9
:100F90000B900C990B9888430B900E988079C006A3
:100FA000002805D5FFE70C990B9808430B90FFE745
:100FB0000B984FF0B04108600420C5F600000068AF
:100FC0000B900C990B9888430B900E9880798006B3
:100FD000002805D5FFE70C990B9808430B90FFE715
:100FE0000B980421C5F6000108600A9840680B9030
:100FF0000C990B9888430B900E98807980070028F5
:1010000005D5FFE70C990B9808430B90FFE70B9869
:101010000A9948600A9800680B900C990B988843CD
:101020000B900E988079C00728B1FFE70C990B98B8
:1010300008430B90FFE70B980A990860FFE7FFE76A
:101040000D9801300D9029E610B0704700000000A7
:1010500082B00190ADF802108DF801209DF80100DA
:1010600028B1FFE7BDF802000199886105E0BDF8ED
:101070000200000401998861FFE702B07047000098
:1010800041F20000C5F600400068000C7047000007
:1010900044F26830C2F2004000687047000000006F
:1010A00040F20800C2F20040027844F26831C2F215
:1010B000004108681044086070470000000000000C
:1010C00080B582B0032000F09BFB01F021FF44F2C9
:1010D0001842C5F602021168C1F3032348F2926177
:1010E000C0F60001CB5C03F01F03D84000900098CD
:1010F000126802F00F02895C01F01F01C84040F243
:101100000401C2F200410860009840F20001C2F2FE
:10111000004108600F2000F013F820B1FFE7012024
:101120008DF8070005E000F02BFB00208DF807008C
:10113000FFE79DF8070002B080BD0000000000003E
:1011400080B590B00E900E980F2810D8FFE70E993A
:1011500037200090002200F03BFB009800F02CFBB1
:101160000E9840F20C01C2F20041086003E0012039
:101170008DF83F004EE0FFE744F2E840C5F602007C
:10118000016841F020010160006800F0200001903A
:101190000198FFE706A802A901F036FE0B9804901B
:1011A000049820B9FFE701F09FFE059004E001F0EC
:1011B0009BFE40000590FFE705984DF68361C4F261
:1011C0001B31A0FB01014FF0FF3000EB9140039079
:1011D00040F2A810C2F2004041F20041C4F2000106
:1011E000016040F2E731C160039941600021016173
:1011F000816002F07DFE48B9FFE740F2A810C2F21C
:10120000004002F0CDFE8DF83F0003E001208DF894
:101210003F00FFE79DF83F0010B080BD00000000D8
:10122000B0B586B0049003910292FFE7049890F85D
:10123000A000012804D1FFE702208DF8170049E043
:101240000499012081F8A000FFE7FFE7049902203C
:1012500081F8A100049A0298342100FB0121009139
:101260000398019002684368D0F808C0D0F80CE0F9
:1012700004694569CD648C64C1F844E0C1F840C09C
:10128000CB638A638269C369D0F820C0D0F824E0B8
:10129000846AC56A4D660C66C1F85CE0C1F858C046
:1012A0004B650A65006B886604980399029A03F0FF
:1012B0008BFA0498016801204862049981F8A10022
:1012C000FFE70499002081F8A000FFE700208DF8D7
:1012D0001700FFE79DF8170006B0B0BD0000000042
:1012E00080B584B00290029820B9FFE701208DF804
:1012F0000F007EE0029890F8A10040B9FFE7029944
:10130000002081F8A000029800F07AF8FFE7029927
:10131000022081F8A10002980168886920F07040DD
:101320008861029A11685068D2F808C0D36840EA10
:101330000C001843126902438869104388610298BF
:101340004069000401900198029A11689269104363
:1013500088600298C069000401900198029A11689F
:10136000126A1043C8600298406A00040190019814
:10137000029A1168926A104308610298C06A0004D8
:1013800001900198029A1168126B1043486102980B
:1013900090F8350000020190029890F836000004A1
:1013A000009002980168C86A00F07F40C862009807
:1013B00001990143029890F834200A430168C86AF1
:1013C0001043C86202980168486B40F00600486309
:1013D00002980168886940F0010088610299002044
:1013E000C1F8A400029A012182F8A1108DF80F0023
:1013F000FFE79DF80F0004B080BD00000000000072
:1014000080B5C4B0439000204290419040903F90FE
:101410003E900EA8C021FFF770F84398006841F293
:101420000001C5F20001884240F03A81FFE7002048
:101430000F904FF000510E91192118914FF4A571A2
:10144000199102211A911B9121211C911D901E902E
:101450001F900EA800F03CFA18B1FFE7FFF7ACF9B7
:10146000FFE7FFE744F2E440C5F60200016841F0FF
:1014700008010160006800F008000D900D98FFE77A
:10148000FFE744F2E040C5F60200016841F01001B8
:101490000160006800F010000C900C98FFE7FFE777
:1014A00044F2E040C5F60200016841F48071016039
:1014B000006800F480700B900B98FFE7FFE744F2A0
:1014C000E040C5F60200016841F0200101600068BB
:1014D00000F020000A900A98FFE7FFE744F2E0409E
:1014E000C5F60200016841F001010160006800F0EA
:1014F000010009900998FFE7FFE744F2E040C5F6D4
:101500000200016841F080010160006800F0800085
:1015100008900898FFE7FFE744F2E040C5F60200B4
:10152000016841F040010160006800F04000079050
:101530000798FFE7FFE744F2E040C5F602000168C4
:1015400041F008010160006800F00800069006986C
:10155000FFE760203E90022001903F900020029023
:1015600040900320039041900E200490429041F25D
:101570000000C5F602003EA90591FFF785FBDDF8E6
:1015800004C0029B039A0498059940F2F76ECDF8C7
:10159000F8E0CDF8FCC040934192429042F2000046
:1015A000C5F60200FFF770FBDDF804C0029B039A4A
:1015B000049805994FF4806ECDF8F8E0CDF8FCC0A2
:1015C00040934192429041F20040C5F60200FFF77D
:1015D0005BFBDDF804C0029B039A049805994FF069
:1015E000040ECDF8F8E0CDF8FCC040934192429053
:1015F0000020C5F602000090FFF746FBDDF804C0AE
:10160000029B039A049805994FF47F4ECDF8F8E0B9
:10161000CDF8FCC040934192429041F60040C5F69F
:101620000200FFF731FBDDF804C0029B039A049827
:10163000059947F2C00ECDF8F8E0CDF8FCC0409314
:101640004192429041F60000C5F60200FFF71CFBF4
:101650000098DDF804C0029B039A05994FF4807E40
:10166000CDF8F8E0CDF8FCC0409341920D224292B3
:10167000FFF70AFBDDF804C0029B039A0498059962
:101680004FF0400ECDF8F8E0CDF8FCC04093419209
:10169000429040F60040C5F60200FFF7F5FAFFE77A
:1016A00044B080BD0000000010B581B000900098EB
:1016B00040784EF69851CEF2000108604EF6A051E7
:1016C000CEF20001086820F0010008600098406830
:1016D0004EF69C52CEF200021060DDF800E09EF85B
:1016E0000C0000079EF80B2040EA02609EF80020E4
:1016F0009EF808309EF809C09EF80A4040EAC440AF
:101700009EF80D4040EA84409EF80E4040EA444076
:101710009EF80FE040EA0E4040EA0C2040EA430009
:101720001043086001B010BDBFF35F8F4EF6245127
:10173000CEF20001086820F4803008604EF6945123
:10174000CEF2000100200860704700000000000099
:1017500081B00090009840F001004EF69451CEF216
:10176000000108604EF62451CEF20001086840F4F2
:1017700080300860BFF34F8FBFF36F8F01B07047A9
:1017800080B582B0FFE744F2F440C5F6020001687C
:1017900041F002010160006800F002000190019830
:1017A000FFE76FF001000F21002200F011F802B0F6
:1017B00080BD00000000000080B582B0ADF80600DA
:1017C000BDF9060004F004F802B080BD000000007E
:1017D00080B586B0ADF816000491039204F010F8BD
:1017E0000290BDF91600019002980499039A03F043
:1017F00027FA0146019804F00BF806B080BD0000FE
:1018000080B582B00190019804F04AF802B080BD22
:1018100080B584B0029044F60C00C5F60200006862
:1018200000F004010020B0EB910F13D1FFE744F664
:101830000C00C5F60200006800F00700029988421B
:1018400004D0FFE701208DF80F002EE000208DF876
:101850000F002AE044F60C01C5F60201086820F0EA
:101860000700029A10430860FFF712FC0190FFE79F
:1018700044F60400C5F60200006800F400510020A0
:10188000B0EB513F0DD1FFE7FFF702FC0199401A81
:10189000B0F57A7F04D9FFE701208DF80F0004E04E
:1018A000E6E700208DF80F00FFE79DF80F0004B079
:1018B00080BD00000000000044F60001C5F60201F2
:1018C000086840F480700860704700000000000065
:1018D00080B59AB0189000208DF857008DF856000A
:1018E0001898C0780007002848D5FFE71898806E40
:1018F000149078B1FFE71498B0F5801F13D0FFE77C
:101900001498B0F5001F16D0FFE71498B0F5401FEB
:1019100019D019E044F22C41C5F60201086840F4E0
:101920000030086014E018980830022103F0F4F940
:101930008DF857000CE018982830022103F0D4FAF3
:101940008DF8570004E003E001208DF85700FFE711
:101950009DF8570060B9FFE744F25041C5F6020117
:10196000086820F44010189A926E1043086004E052
:101970009DF857008DF85600FFE7FFE7189840786C
:10198000C007002840D0FFE71898806D1390042806
:1019900020D81399DFE801F0030C141C1D0044F259
:1019A0002C41C5F60201086840F40030086015E0DB
:1019B00018980830002103F0AFF98DF857000DE0BA
:1019C00018982830002103F08FFA8DF8570005E0B1
:1019D00004E003E001208DF85700FFE79DF8570071
:1019E00060B9FFE744F25041C5F60201086820F0F3
:1019F0000700189A926D1043086004E09DF85700A4
:101A00008DF85600FFE7FFE7189840788007002818
:101A10004BD5FFE71898C06D129088B1FFE7129878
:101A2000402816D0FFE7129880281AD0FFE71298B6
:101A3000C0281ED0FFE71298B0F5807F1AD01AE0B8
:101A400044F22C41C5F60201086840F400300860F9
:101A500015E018980830002103F05EF98DF8570062
:101A60000DE018982830002103F03EFA8DF8570059
:101A700005E004E003E001208DF85700FFE79DF842
:101A8000570060B9FFE744F25041C5F6020108680B
:101A900020F4E070189AD26D1043086004E09DF8BD
:101AA00057008DF85600FFE7FFE718984078400789
:101AB000002850D5FFE71898D0F8A8001190A0B1E1
:101AC000FFE71198B0F5001F18D0FFE71198B0F5A7
:101AD000800F1BD0FFE71198B0F5C00F1ED0FFE7B5
:101AE0001198B0F5000F1AD01AE044F22C41C5F657
:101AF0000201086840F40030086015E018980830CA
:101B0000002103F009F98DF857000DE018982830EE
:101B1000002103F0E9F98DF8570005E004E003E047
:101B200001208DF85700FFE79DF8570068B9FFE7DF
:101B300044F25841C5F60201086820F46000189A82
:101B4000D2F8A8201043086004E09DF857008DF8F3
:101B50005600FFE7FFE7189840780007002850D5A7
:101B6000FFE71898D0F8AC001090A0B1FFE71098EC
:101B7000B0F1807F18D0FFE71098B0F1007F1BD044
:101B8000FFE71098B0F1407F1ED0FFE71098B0F14A
:101B9000806F1AD01AE044F22C41C5F602010868A1
:101BA00040F40030086015E018980830002103F078
:101BB000B3F88DF857000DE018982830002103F095
:101BC00093F98DF8570005E004E003E001208DF85B
:101BD0005700FFE79DF8570068B9FFE744F2584106
:101BE000C5F60201086820F0E060189AD2F8AC202F
:101BF0001043086004E09DF857008DF85600FFE799
:101C0000FFE71898C078800700283ED5FFE71898AE
:101C1000C06C0F90F0B1FFE70F98102808D0FFE7D5
:101C20000F9820280DD0FFE70F98302811D012E030
:101C300044F22C41C5F60201086840F40030086007
:101C40000DE018980830022103F066F88DF857006F
:101C500005E004E003E001208DF85700FFE79DF860
:101C6000570060B9FFE744F24C41C5F6020108682D
:101C700020F03000189AD26C1043086004E09DF800
:101C800057008DF85600FFE7FFE718984078C00628
:101C900000284ED5FFE71898006E0E90A0B1FFE720
:101CA0000E98B0F5805F18D0FFE70E98B0F5005F92
:101CB0001BD0FFE70E98B0F5405F1ED0FFE70E98EF
:101CC000B0F5804F1AD01AE044F22C41C5F602015B
:101CD000086840F40030086015E0189808300021CA
:101CE00003F01AF88DF857000DE0189828300021FD
:101CF00003F0FAF88DF8570005E004E003E0012056
:101D00008DF85700FFE79DF8570060B9FFE744F2F0
:101D10005041C5F60201086820F4E040189A126E9E
:101D20001043086004E09DF857008DF85600FFE767
:101D3000FFE718984078800600284CD5FFE71898F0
:101D4000406E0D90C8B1FFE70D98B0F5803F15D0FB
:101D5000FFE70D98B0F5003F18D0FFE70D98B0F5FC
:101D6000403F1BD0FFE70D98B0F5802F17D0FFE75D
:101D70000D98B0F5A02F13D013E016E01898083096
:101D8000012102F0C9FF8DF857000EE018982830A5
:101D9000012103F0A9F88DF8570006E005E004E002
:101DA00003E001208DF85700FFE79DF8570060B968
:101DB000FFE744F25041C5F60201086820F4E02034
:101DC000189A526E1043086004E09DF857008DF891
:101DD0005600FFE7FFE718984078400600284ED5E8
:101DE000FFE71898D0F8B0000C90C8B1FFE70C9846
:101DF000B0F1805F15D0FFE70C98B0F1005F18D00C
:101E0000FFE70C98B0F1405F1BD0FFE70C98B0F1F2
:101E1000804F17D0FFE70C98B0F1A04F13D013E01C
:101E200016E018980830012102F076FF8DF857006F
:101E30000EE018982830012103F056F88DF857006D
:101E400006E005E004E003E001208DF85700FFE71D
:101E50009DF8570068B9FFE744F25841C5F6020102
:101E6000086820F0E040189AD2F8B02010430860CB
:101E700004E09DF857008DF85600FFE7FFE718983B
:101E80004078000600283BD5FFE71898006F0B90BC
:101E9000D8B1FFE70B98B0F1805F05D0FFE70B9852
:101EA000B0F1005F09D011E044F22C41C5F6020107
:101EB000086840F4003008600CE0189808300121F0
:101EC00002F02AFF8DF8570004E003E001208DF8AE
:101ED0005700FFE79DF8570060B9FFE744F2504113
:101EE000C5F60201086820F04050189A126F10439E
:101EF000086004E09DF857008DF85600FFE7FFE703
:101F00001898C078C007002837D0FFE71898806C71
:101F10000A90032817D80A99DFE801F014020B137E
:101F200044F22C41C5F60201086840F40030086014
:101F30000DE018980830022102F0EEFE8DF85700EF
:101F400005E004E003E001208DF85700FFE79DF86D
:101F5000570060B9FFE744F24C41C5F6020108683A
:101F600020F00300189A926C1043086004E09DF87A
:101F700057008DF85600FFE7FFE718988078400675
:101F8000002840F1B480FFE744F60001C5F60201E5
:101F9000086840F480700860FFF77AF81690FFE751
:101FA00044F60000C5F602000068C00500280CD405
:101FB000FFE7FFF76DF81699401A652804D3FFE78D
:101FC00003208DF8570000E0EAE79DF8570000284D
:101FD00040F08780FFE744F27040C5F602000068D9
:101FE00000F440701899D1F8B41001F4407188429F
:101FF00013D0FFE744F27041C5F60201086820F4EF
:1020000040701790086840F480300860086820F439
:102010008030086017980860FFE71898D0F8B4007F
:10202000B0F5807F1FD1FFE7FFF732F81690FFE78A
:1020300044F27040C5F60200006800F00201002082
:10204000B0EB510F0ED1FFE7FFF722F81699401AB7
:1020500041F28931884204D3FFE703208DF857000D
:1020600000E0E5E7FFE79DF85700A0BBFFE7FFE7CB
:102070001898D0F8B40000F44070B0F5407F13D148
:10208000FFE744F21041C5F60201086820F47C50D5
:10209000189AD2F8B4204FF6F043C0F6FF731A40F6
:1020A00040EA1210086008E044F21041C5F602014F
:1020B000086820F47C500860FFE71898D0F8B42036
:1020C0006FF31F3244F27041C5F6020108681043F5
:1020D0000860FFE704E09DF857008DF85600FFE721
:1020E00004E09DF857008DF85600FFE7FFE71898C9
:1020F0000068C007002800F04C80FFE71898C06F08
:10210000099028282BD80999DFE801F015292929F9
:102110002929292916292929292929291E2929294D
:102120002929292926292929292929292729292924
:1021300029292929280016E018980830012102F0E1
:10214000EBFD8DF857000EE018982830012102F0C1
:10215000CBFE8DF8570006E005E004E003E0012027
:102160008DF85700FFE79DF8570060B9FFE744F28C
:102170005441C5F60201086820F03800189AD26F61
:102180001043086004E09DF857008DF85600FFE703
:10219000FFE7189800788007002839D5FFE71898DE
:1021A000806F0890052819D80899DFE801F003042A
:1021B0000C14151616E018980830012102F0ACFD39
:1021C0008DF857000EE018982830012102F08CFE9F
:1021D0008DF8570006E005E004E003E001208DF8EB
:1021E0005700FFE79DF8570060B9FFE744F25441FC
:1021F000C5F60201086820F00700189A926F104394
:10220000086004E09DF857008DF85600FFE7FFE7EF
:1022100018980078400700283BD5FFE71898D0F8B9
:1022200094000790052819D80799DFE801F0030406
:102230000C14151616E018980830012102F06CFDF8
:102240008DF857000EE018982830012102F04CFE5E
:102250008DF8570006E005E004E003E001208DF86A
:102260005700FFE79DF8570068B9FFE744F258416F
:10227000C5F60201086820F00700189AD2F89420E9
:102280001043086004E09DF857008DF85600FFE702
:10229000FFE718980078800600284ED5FFE71898C9
:1022A000D0F890000690C8B1FFE70698B0F1805FC3
:1022B00015D0FFE70698B0F1005F18D0FFE7069849
:1022C000B0F1405F1BD0FFE70698B0F1804F17D008
:1022D000FFE70698B0F1A04F13D013E016E018986E
:1022E0000830002102F018FD8DF857000EE0189814
:1022F0002830022102F0F8FD8DF8570006E005E0D5
:1023000004E003E001208DF85700FFE79DF8570037
:1023100068B9FFE744F25441C5F60201086820F0AD
:10232000E040189AD2F890201043086004E09DF82D
:1023300057008DF85600FFE7FFE718980078400631
:1023400000284ED5FFE71898D0F89C000590C8B13A
:10235000FFE70598B0F5806F15D0FFE70598B0F559
:10236000006F18D0FFE70598B0F5406F1BD0FFE76E
:102370000598B0F5805F17D0FFE70598B0F5A05F2E
:1023800013D013E016E018980830002102F0C4FCC6
:102390008DF857000EE018982830022102F0A4FDB5
:1023A0008DF8570006E005E004E003E001208DF819
:1023B0005700FFE79DF8570068B9FFE744F258411E
:1023C000C5F60201086820F4E050189AD2F89C2063
:1023D0001043086004E09DF857008DF85600FFE7B1
:1023E000FFE718980078000600284ED5FFE71898F8
:1023F000D0F8A0000490C8B1FFE70498B0F5005FE2
:1024000015D0FFE70498B0F5804F18D0FFE7049887
:10241000B0F5C04F1BD0FFE70498B0F5004F17D0C0
:10242000FFE70498B0F5204F13D013E016E018989A
:102430000830002102F070FC8DF857000EE018986B
:102440002830022102F050FD8DF8570006E005E02B
:1024500004E003E001208DF85700FFE79DF85700E6
:1024600068B9FFE744F25841C5F60201086820F454
:102470006040189AD2F8A0201043086004E09DF84C
:1024800057008DF85600FFE7FFE71898007800071F
:10249000002820D5FFE71898D0F88400B0F5805FB9
:1024A0000CD1FFE718982830022102F01DFD20B161
:1024B000FFE701208DF85600FFE7FFE744F25441A3
:1024C000C5F60201086820F44050189AD2F884201A
:1024D00010430860FFE718980078C006002820D550
:1024E000FFE71898D0F89800B0F5807F0CD1FFE78F
:1024F00018982830022102F0F7FC20B1FFE70120F4
:102500008DF85600FFE7FFE744F25841C5F6020197
:10251000086820F44070189AD2F898201043086098
:10252000FFE718988078000700283CD5FFE7189847
:10253000D0F8A400039050B1FFE70398B0F5803FB6
:102540000DD0FFE70398B0F5003F10D010E01898C9
:102550000830002102F0E0FB8DF857000CE01898DD
:102560002830022102F0C0FC8DF8570004E003E09F
:1025700001208DF85700FFE79DF8570068B9FFE785
:1025800044F25841C5F60201086820F44030189A18
:10259000D2F8A4201043086004E09DF857008DF89D
:1025A0005600FFE7FFE718988078400700283FD5DE
:1025B000FFE71898D0F888000290B0F5801F0AD085
:1025C000FFE70298B0F5001F0ED0FFE70298B0F5C4
:1025D000401F11D011E044F22C41C5F602010868F9
:1025E00040F4003008600CE018982830012102F017
:1025F0007BFC8DF8570004E003E001208DF85700C4
:10260000FFE79DF8570068B9FFE744F25441C5F66B
:102610000201086820F44010189AD2F8882010436C
:10262000086004E09DF857008DF85600FFE7FFE7CB
:1026300018988078C007A8B3FFE71898006D01903C
:1026400028B1FFE70198B0F5803F09D010E044F2CF
:102650002C41C5F60201086840F4003008600BE028
:1026600018980830022102F057FB8DF8570003E05C
:1026700001208DF85700FFE79DF8570060B9FFE78C
:1026800044F24C41C5F60201086820F48030189AE3
:10269000126D1043086004E09DF857008DF8560055
:1026A000FFE7FFE71898C078800600280CD5FFE701
:1026B00018982830022102F017FC20B1FFE7012012
:1026C0008DF85600FFE7FFE718988078800700280C
:1026D0003CD5FFE71898D0F880000090D0B1FFE714
:1026E0000098B0F5807F0AD0FFE70098B0F5007F32
:1026F0000ED0FFE70098B0F5407F0AD00BE044F21F
:102700002C41C5F60201086840F40030086006E07C
:1027100005E004E003E001208DF85700FFE79DF895
:10272000570068B9FFE744F25441C5F60201086852
:1027300020F44070189AD2F880201043086004E01A
:102740009DF857008DF85600FFE7FFE7189880784E
:10275000C00600280CD5FFE744F25041C5F602013F
:10276000086820F00040189A526F10430860FFE795
:102770001898C078C00600280DD5FFE744F2104134
:10278000C5F60201086820F48040189AD2F8B820F3
:1027900010430860FFE718988078800600280CD561
:1027A000FFE744F25041C5F60201086820F080704E
:1027B000189AD26E10430860FFE71898C078400658
:1027C000002811D5FFE7FFE744F21041C5F60201EA
:1027D000086820F4004008601898D0F8BC20086809
:1027E00010430860FFE7FFE71898C078000600284C
:1027F0000CD5FFE744F24C41C5F60201086820F011
:102800004050189A526D10430860FFE7189880787E
:10281000000600280DD5FFE744F25441C5F6020139
:10282000086820F44000189AD2F88C201043086001
:10283000FFE718980079C00790B1FFE718980830B3
:10284000002102F069FA8DF857009DF8570008B989
:10285000FFE704E09DF857008DF85600FFE7FFE71B
:10286000189800798007002812D5FFE718980830DB
:10287000012102F051FA8DF857009DF8570008B970
:10288000FFE704E09DF857008DF85600FFE7FFE7EB
:10289000189800794007002812D5FFE718980830EB
:1028A000022102F039FA8DF857009DF8570008B957
:1028B000FFE704E09DF857008DF85600FFE7FFE7BB
:1028C000189800790007002812D5FFE718982830DB
:1028D000002102F009FB8DF857009DF8570008B958
:1028E000FFE704E09DF857008DF85600FFE7FFE78B
:1028F00018980079C006002812D5FFE718982830EC
:10290000012102F0F1FA8DF857009DF8570008B93F
:10291000FFE704E09DF857008DF85600FFE7FFE75A
:10292000189800798006002812D5FFE718982830FB
:10293000022102F0D9FA8DF857009DF8570008B926
:10294000FFE704E09DF857008DF85600FFE7FFE72A
:102950009DF8560020B9FFE700208DF8670003E0DE
:1029600001208DF86700FFE79DF867001AB080BD71
:1029700080B586B004900391049820B9FFE7012048
:102980008DF817003CE2039842F20001C5F20021E5
:10299000096801F00F01884216D9FFE742F20000F2
:1029A000C5F20020016821F00F01039A1143016074
:1029B000006800F00F000399884204D0FFE701206F
:1029C0008DF817001CE2FFE7049800784007002804
:1029D00019D5FFE70498006944F21841C5F60201D1
:1029E000096801F0700188420CD9FFE744F21841F0
:1029F000C5F60201086820F07000049A12691043BD
:102A00000860FFE7FFE7049800780007002819D561
:102A1000FFE70498406944F21C41C5F602010968C9
:102A200001F0700188420CD9FFE744F21C41C5F661
:102A30000201086820F07000049A5269104308608F
:102A4000FFE7FFE704980078C006002819D5FFE7E4
:102A50000498806944F21C41C5F60201096801F43A
:102A6000E06188420CD9FFE744F21C41C5F602013F
:102A7000086820F4E060049A926910430860FFE758
:102A8000FFE7049800788006002819D5FFE704982E
:102A9000C06944F22041C5F60201096801F07001E5
:102AA00088420CD9FFE744F22041C5F602010868CC
:102AB00020F07000049AD26910430860FFE7FFE736
:102AC000049800788007002819D5FFE70498C068AB
:102AD00044F21841C5F60201096801F00F0188426D
:102AE0000CD9FFE744F21841C5F60201086820F04E
:102AF0000F00049AD26810430860FFE7FFE70498CC
:102B00000078C007002800F08C80FFE744F21841ED
:102B1000C5F60201086820F47060049A92681043B8
:102B2000086004984068022811D1FFE744F2004091
:102B3000C5F60200006800F400310020B0EB514FF0
:102B400004D1FFE701208DF8170059E13EE0049819
:102B50004068032811D1FFE744F20040C5F60200A7
:102B6000006800F000710020B0EB516F04D1FFE766
:102B700001208DF8170043E127E004984068012800
:102B800011D1FFE744F20040C5F60200006800F4EE
:102B900080710020B0EB112F04D1FFE701208DF8E8
:102BA00017002DE110E044F20040C5F60200006875
:102BB00000F004010020B0EB910F04D1FFE70120E9
:102BC0008DF817001CE1FFE7FFE7FFE744F2104133
:102BD000C5F60201086820F00700049A5268104305
:102BE0000860FEF755FA0190FFE744F21040C5F681
:102BF0000200006800F0380004994968B0EBC10F8A
:102C00000ED0FFE7FEF744FA0199401A41F28931EC
:102C1000884204D3FFE703208DF81700F0E0E4E7D3
:102C2000FFE7049800788007002819D5FFE704988B
:102C3000C06844F21841C5F60201096801F00F01AD
:102C400088420CD2FFE744F21841C5F60201086839
:102C500020F00F00049AD26810430860FFE7FFE7F6
:102C6000039842F20001C5F20021096801F00F014A
:102C7000884216D2FFE742F20000C5F20020016848
:102C800021F00F01039A11430160006800F00F006A
:102C90000399884204D0FFE701208DF81700AFE0C8
:102CA000FFE7049800784007002819D5FFE704984B
:102CB000006944F21841C5F60201096801F070018B
:102CC00088420CD2FFE744F21841C5F602010868B9
:102CD00020F07000049A126910430860FFE7FFE7D4
:102CE000049800780007002819D5FFE70498406988
:102CF00044F21C41C5F60201096801F070018842E6
:102D00000CD2FFE744F21C41C5F60201086820F02E
:102D10007000049A526910430860FFE7FFE70498C7
:102D20000078C006002819D5FFE70498806944F2AE
:102D30001C41C5F60201096801F4E06188420CD229
:102D4000FFE744F21C41C5F60201086820F4E06088
:102D5000049A926910430860FFE7FFE7049800783F
:102D60008006002819D5FFE70498C06944F2204185
:102D7000C5F60201096801F0700188420CD2FFE734
:102D800044F22041C5F60201086820F07000049A60
:102D9000D26910430860FFE7FFE700F0B9F844F29A
:102DA0001842C5F602021168C1F3032348F292618A
:102DB000C0F60001CB5C03F01F03D84000900098E0
:102DC000126802F00F02895C01F01F01C84040F256
:102DD0000401C2F200410860009840F20001C2F212
:102DE0000041086040F20C00C2F200400068FEF7AB
:102DF000A7F98DF80B009DF80B008DF81700FFE781
:102E00009DF8170006B080BD82B001900091019935
:102E10003F20086044F21040C5F60200006800F050
:102E200007000199486044F21840C5F602000168A5
:102E300001F47061019A9160016801F00F01019A3B
:102E4000D160006800F070000199086144F21C40F4
:102E5000C5F60200016801F07001019A5161006835
:102E600000F4E0600199886144F22040C5F6020058
:102E7000006800F070000199C86142F20000C5F2DC
:102E80000020006800F00F000099086002B0704751
:102E900080B582B000F03CF844F21842C5F6020258
:102EA0001168C1F3032348F29261C0F60001CB5CC4
:102EB00003F01F03D84001900198126802F00F023E
:102EC000895C01F01F0120FA01F140F20400C2F216
:102ED00000400160019940F20002C2F2004211601C
:102EE000006802B080BD000080B5FFF7D1FF44F25A
:102EF0001C41C5F602010968C1F3021248F2926151
:102F0000C0F60001895C01F01F01C84080BD0000CF
:102F10008AB044F21040C5F60200006800F03800A4
:102F200001460191182800F25F810199DFE811F054
:102F300019005C015C015C015C015C015C015C01ED
:102F40003A005C015C015C015C015C015C015C01BC
:102F500040005C015C015C015C015C015C015C01A6
:102F6000460044F20040C5F60200006800F020016F
:102F70000020B0EB511F0ED0FFE744F20040C5F631
:102F800002000068C0F3C10149F20000C0F2D03075
:102F9000C840029005E049F20000C0F2D030029033
:102FA000FFE727E140F60010C0F23D00029021E16A
:102FB00047F64000C0F27D1002901BE144F2284029
:102FC000C5F60200016801F0030108910068C0F332
:102FD0000510079044F22C40C5F60200006800F08E
:102FE00001000690069844F23441C5F602010968D2
:102FF00089B2C908484300EE100AB8EE400A8DEDC8
:10300000040A0798002800F0EB80FFE7089800907A
:1030100048B1FFE70098012865D0FFE70098022833
:1030200000F08380A3E044F20040C5F6020000688F
:1030300000F020010020B0EB511F31D0FFE744F237
:103040000040C5F602000068C0F3C10149F200006B
:10305000C0F2D030C84005909DED050AB8EE400A98
:103060009DED071AB8EE411A80EE010A44F2304095
:10307000C5F6020000686FF35F2001EE100AB8EE9B
:10308000411A9DED042A9FED5E3A02EE031AB7EE57
:10309000002A31EE021A20EE010A8DED030A21E02A
:1030A0009DED070AB8EE401A9FED570A80EE010A1F
:1030B00044F23040C5F6020000686FF35F2001EE75
:1030C000100AB8EE411A9DED042A9FED4D3A02EE2A
:1030D000031AB7EE002A31EE021A20EE010A8DED36
:1030E000030AFFE765E09DED070AB8EE401A9FED81
:1030F000450A80EE010A44F23040C5F6020000683D
:103100006FF35F2001EE100AB8EE411A9DED042A1C
:103110009FED3B3A02EE031AB7EE002A31EE021A97
:1031200020EE010A8DED030A43E09DED070AB8EE9B
:10313000401A9FED320A80EE010A44F23040C5F693
:10314000020000686FF35F2001EE100AB8EE411A2A
:103150009DED042A9FED2A3A02EE031AB7EE002AEB
:1031600031EE021A20EE010A8DED030A21E09DEDF9
:10317000070AB8EE401A9FED230A80EE010A44F2D6
:103180003040C5F6020000686FF35F2001EE100AC0
:10319000B8EE411A9DED042A9FED193A02EE031A8A
:1031A000B7EE002A31EE021A20EE010A8DED030A75
:1031B000FFE744F23040C5F60200006881B201200A
:1031C00000EB512009909DED030A9DED091AB8EE20
:1031D000411A80EE010ABCEEC00A8DED020A02E03F
:1031E00000200290FFE705E040F60010C0F23D002D
:1031F0000290FFE702980AB0704700BF20BCBE4BA8
:10320000000000390024744A0024744C00000000BF
:1032100080B58CB00A900A9828B9FFE701208DF894
:103220002F0000F09DBD0A980078C007002800F02C
:10323000B980FFE744F21040C5F60200006800F0D4
:103240003800069044F22840C5F602000068059058
:10325000069810280AD0FFE7069818281CD1FFE727
:10326000059800F00300022816D1FFE744F2004061
:10327000C5F60200006800F400310020B0EB514FA9
:1032800009D0FFE70A98406828B9FFE701208DF8C8
:103290002F0000F065BD84E0FFE70A984068B0F5B4
:1032A000803F09D1FFE744F20041C5F602010868FA
:1032B00040F48030086032E00A98406868B9FFE75F
:1032C00044F20041C5F60201086820F4803008602D
:1032D000086820F48020086020E00A984068B0F573
:1032E000A02F0DD1FFE744F20041C5F602010868A6
:1032F00040F480200860086840F4803008600CE0EA
:1033000044F20041C5F60201086820F480300860EC
:10331000086820F480200860FFE7FFE7FFE7FFE789
:103320000A984068F0B1FFE7FDF7B2FE0990FFE7A9
:1033300044F20040C5F60200006800F400310020AD
:10334000B0EB514F0DD1FFE7FDF7A2FE0999401AEE
:10335000652805D3FFE703208DF82F0000F000BD9E
:10336000E6E71DE0FDF794FE0990FFE744F2004018
:10337000C5F60200006800F400310020B0EB514FA8
:103380000DD0FFE7FDF784FE0999401A652805D3A3
:10339000FFE703208DF82F0000F0E2BCE6E7FFE72F
:1033A000FFE7FFE70A9800788007002840F11681C0
:1033B000FFE744F21040C5F60200006800F0380054
:1033C000049044F22840C5F6020000680390049877
:1033D00050B1FFE70498182878D1FFE79DF80C005A
:1033E0008007002872D1FFE744F20040C5F60200D2
:1033F000006800F004010020B0EB910F09D0FFE756
:103400000A98C06828B9FFE701208DF82F0000F066
:10341000A7BC44F20041C5F60201086820F019007B
:103420000A9AD26810430860FDF732FE0990FFE760
:1034300044F20040C5F60200006800F004010020DC
:10344000B0EB910F0DD1FFE7FDF722FE0999401A6D
:10345000032805D3FFE703208DF82F0000F080BC80
:10346000E6E7FFE7FDF70CFE41F2030188421DD8B5
:10347000FFE70A98006940280AD1FFE744F20441B7
:10348000C5F602010868202262F3113008600CE0E2
:1034900044F20441C5F60201086820F47C300A9A1F
:1034A000126940EA02300860FFE70CE044F2044190
:1034B000C5F60201086820F0FE400A9A126940EA47
:1034C00002600860FFE7FFE7FFE786E00A98C06850
:1034D00000285CD0FFE744F20041C5F6020108680D
:1034E00020F019000A9AD26810430860FDF7D0FD59
:1034F0000990FFE744F20040C5F60200006800F0C2
:1035000004010020B0EB910F0DD1FFE7FDF7C0FDE6
:103510000999401A032805D3FFE703208DF82F00EF
:1035200000F01EBCE6E7FFE7FDF7AAFD41F203014C
:1035300088421DD8FFE70A98006940280AD1FFE7B2
:1035400044F20441C5F602010868202262F31130FA
:1035500008600CE044F20441C5F60201086820F45A
:103560007C300A9A126940EA02300860FFE70CE0FA
:1035700044F20441C5F60201086820F0FE400A9AB0
:10358000126940EA02600860FFE7FFE724E044F2C6
:103590000041C5F60201086820F001000860FDF74F
:1035A00077FD0990FFE744F20040C5F6020000688D
:1035B00000F004010020B0EB910F0CD0FFE7FDF705
:1035C00067FD0999401A032804D3FFE703208DF80B
:1035D0002F00C5E3E7E7FFE7FFE7FFE70A9800787A
:1035E000C006002840F1EB80FFE744F21040C5F62A
:1035F0000200006800F03800029044F22840C5F64E
:10360000020000680190029808280AD0FFE702989B
:10361000182850D1FFE7019800F0030001284AD193
:10362000FFE744F20040C5F60200006800F4807134
:103630000020B0EB112F09D0FFE70A98C06980285D
:1036400004D0FFE701208DF82F0089E3FFE7FDF7A5
:1036500017FD41F2030188421DD8FFE70A98006A6E
:1036600020280AD1FFE744F20441C5F602010868A8
:10367000102262F39E6008600CE044F20441C5F63B
:103680000201086820F0F8400A9A126A40EA826053
:103690000860FFE70CE044F20C41C5F6020108683F
:1036A00020F07C500A9A126A40EA02600860FFE744
:1036B000FFE7FFE782E00A98C069002858D0FFE7DB
:1036C00044F20041C5F60201086840F0800008603D
:1036D000FDF7DEFC0990FFE744F20040C5F602006A
:1036E000006800F480710020B0EB112F0CD1FFE7CF
:1036F000FDF7CEFC0999401A032804D3FFE7032005
:103700008DF82F002CE3E7E7FFE7FDF7B9FC41F266
:10371000030188421DD8FFE70A98006A20280AD1D1
:10372000FFE744F20441C5F602010868102262F383
:103730009E6008600CE044F20441C5F6020108688E
:1037400020F0F8400A9A126A40EA82600860FFE7B7
:103750000CE044F20C41C5F60201086820F07C50F0
:103760000A9A126A40EA02600860FFE7FFE724E075
:1037700044F20041C5F60201086820F080000860AC
:10378000FDF786FC0990FFE744F20040C5F6020011
:10379000006800F480710020B0EB112F0CD0FFE71F
:1037A000FDF776FC0999401A032804D3FFE70320AC
:1037B0008DF82F00D4E2E7E7FFE7FFE7FFE70A987D
:1037C0000078000700284FD5FFE70A98406928B322
:1037D000FFE744F27441C5F60201086840F00100B9
:1037E0000860FDF755FC0990FFE744F27440C5F608
:1037F0000200006800F002010020B0EB510F0CD174
:10380000FFE7FDF745FC0999401A032804D3FFE7B9
:1038100003208DF82F00A3E2E7E724E044F274418F
:10382000C5F60201086820F001000860FDF730FCD1
:103830000990FFE744F27440C5F60200006800F00A
:1038400002010020B0EB510F0CD0FFE7FDF720FC88
:103850000999401A032804D3FFE703208DF82F00AD
:103860007EE2E7E7FFE7FFE70A9800788006002896
:103870004FD5FFE70A98806928B3FFE744F200417B
:10388000C5F60201086840F480500860FDF700FCAE
:103890000990FFE744F20040C5F60200006800F41A
:1038A00000510020B0EB513F0CD1FFE7FDF7F0FBDA
:1038B0000999401A032804D3FFE703208DF82F004D
:1038C0004EE2E7E724E044F20041C5F60201086851
:1038D00020F480500860FDF7DBFB0990FFE744F21D
:1038E0000040C5F60200006800F400510020B0EB73
:1038F000513F0CD0FFE7FDF7CBFB0999401A032895
:1039000004D3FFE703208DF82F0029E2E7E7FFE764
:10391000FFE70A9800784007002840F1A780FFE7FA
:1039200044F60001C5F60201086840F480700860A2
:10393000FDF7AEFB0990FFE744F60000C5F6020074
:103940000068C00500280CD4FFE7FDF7A1FB09992A
:10395000401A652804D3FFE703208DF82F00FFE10C
:10396000EAE7FFE70A988068012809D1FFE744F2F7
:103970007041C5F60201086840F00100086031E0BE
:103980000A98806868B9FFE744F27041C5F6020101
:10399000086820F001000860086820F00400086052
:1039A0001FE00A98806805280DD1FFE744F27041B6
:1039B000C5F60201086840F004000860086840F09D
:1039C000010008600CE044F27041C5F6020108688D
:1039D00020F001000860086820F004000860FFE79C
:1039E000FFE7FFE7FFE70A988068F8B1FFE7FDF718
:1039F0004FFB0990FFE744F27040C5F602000068F3
:103A000000F002010020B0EB510F0ED1FFE7FDF7EF
:103A10003FFB0999401A41F28931884204D3FFE7FC
:103A200003208DF82F009BE1E5E71EE0FDF730FB5A
:103A30000990FFE744F27040C5F60200006800F00C
:103A400002010020B0EB510F0ED0FFE7FDF720FB85
:103A50000999401A41F28931884204D3FFE70320D3
:103A60008DF82F007CE1E5E7FFE7FFE70A98406A61
:103A7000002800F07181FFE744F21040C5F6020013
:103A8000006800F03800182800F0E080FFE70A988E
:103A9000406A022840F0B480FFE744F20041C5F6D6
:103AA0000201086820F080700860FDF7F1FA0990C3
:103AB000FFE744F20040C5F60200006800F0007124
:103AC0000020B0EB516F0CD0FFE7FDF7E1FA099948
:103AD000401A032804D3FFE703208DF82F003FE1AD
:103AE000E7E7FFE744F22841C5F60201086840F223
:103AF000F33290430A9B9A6ADB6A42EA031210434C
:103B000008600A99086BD1F834C08B6BCA6B013816
:103B10006FF35F204FF60061CFF6FF7101EB4C2190
:103B200089B208440021CFF6FF7101EB034101F493
:103B3000FE0108444FF07F4101EB026101F0FE41BC
:103B4000084444F23041C5F602010860FFE744F240
:103B50002C41C5F602010091086820F001000860C0
:103B600044F23442C5F6020210684FF6F8739843E7
:103B70000A9B9B6C40EAC3001060086820F00C00B0
:103B80000A9A126C10430860086820F002000A9A32
:103B9000526C10430860086840F480300860086880
:103BA00040F400300860086840F48020086008682D
:103BB00040F00100086044F20041C5F602010868C7
:103BC00040F080700860FDF763FA0990FFE744F267
:103BD0000040C5F60200006800F000710020B0EB64
:103BE000516F0CD1FFE7FDF753FA0999401A0328EA
:103BF00004D3FFE703208DF82F00B1E0E7E724E0CE
:103C000044F20041C5F60201086820F080700860A7
:103C1000FDF73EFA0990FFE744F20040C5F60200C6
:103C2000006800F000710020B0EB516F0CD0FFE78E
:103C3000FDF72EFA0999401A032804D3FFE7032061
:103C40008DF82F008CE0E7E7FFE784E044F228409E
:103C5000C5F602000068089044F23040C5F6020044
:103C6000006807900A98406A012837D0FFE7089853
:103C700000F003000A99896A88422FD1FFE708986B
:103C800000F47C710A98C06AB0EB111F26D1FFE7DF
:103C900007986FF35F200A99096B013988421DD19B
:103CA000FFE7BDF81C100A98406B0138B0EB512FAC
:103CB00014D1FFE7079800F4FE010A98806B0138E1
:103CC000B0EB114F0AD1FFE7079800F0FE410A98C8
:103CD000C06B0138B0EB116F04D0FFE701208DF805
:103CE0002F003DE044F23440C5F60200006880B287
:103CF000C00808900A98806C0899884229D0FFE78C
:103D000044F22C41C5F60201086820F00100086069
:103D1000FDF7BEF90990FFE7FDF7BAF90999401AD6
:103D200008B9FFE7F8E744F23441C5F60201086834
:103D30004FF6F87290430A9A926C40EAC20008600B
:103D400044F22C41C5F60201086840F00100086009
:103D5000FFE7FFE7FFE7FFE700208DF82F00FFE711
:103D60009DF82F000CB080BD80B584B00290019109
:103D7000029820B9FFE701208DF80F002BE0029890
:103D800090F82C0040B9FFE70299002081F82D003F
:103D9000029800F025F8FFE70299022081F82C0034
:103DA000029951F8040BFCF723FD029A019910685F
:103DB0005268FCF79DFD44F20001C5F2002108683D
:103DC00040F0004008600299012081F82C0000209A
:103DD0008DF80F00FFE79DF80F0004B080BD0000D4
:103DE00080B582B00190FCF7A7FE02B080BD000054
:103DF00080B584B002900191029890F82C000228BE
:103E000004D1FFE702208DF80F001CE0029890F823
:103E10002C0001280ED1FFE70299022081F82C0026
:103E2000029800680199FCF737FD0299012081F89A
:103E30002C0003E001208DF80F0004E0FFE70020D4
:103E40008DF80F00FFE79DF80F0004B080BD000063
:103E500080B586B0049003910292049890F82C00EB
:103E60008DF807009DF80700022804D1FFE7022023
:103E70008DF817002CE09DF80700012805D0FFE71A
:103E80009DF8070005281AD1FFE70499022081F860
:103E90002C00049800680399029AFCF70DFD039822
:103EA0000068022805D1FFE70499052081F82C005D
:103EB00004E00499012081F82C00FFE703E00120D1
:103EC0008DF8170004E0FFE700208DF81700FFE7EA
:103ED0009DF8170006B080BD81B0009001B070471A
:103EE00081B0009001B0704781B0009001B0704780
:103EF00080B582B00090009820B9FFE701208DF8CE
:103F0000070045E0009890F83D0040B9FFE70099B0
:103F1000002081F83C00009800F03EF8FFE700998F
:103F2000022081F83D00009951F8040B01F08CFA51
:103F30000099012081F84800FFE70099012081F8ED
:103F40003E00009981F83F00009981F840000099F7
:103F500081F84100009981F84200009981F84300FE
:103F6000FFE7FFE70099012081F84400009981F8FC
:103F70004500009981F84600009981F84700FFE765
:103F80000099012081F83D0000208DF80700FFE72F
:103F90009DF8070002B080BD81B0009001B070476D
:103FA00083B00190019890F83D00012804D0FFE70C
:103FB00001208DF80B0071E00199022081F83D008D
:103FC00001980168C86840F00100C8600198006865
:103FD0000021C4F2010188423CD0FFE7019800684B
:103FE000B0F1804F36D0FFE70198006840F2004101
:103FF000C4F2000188422DD0FFE70198006840F626
:104000000001C4F20001884224D0FFE70198006853
:1040100040F60041C4F2000188421BD0FFE701983E
:10402000006840F20041C4F20101884212D0FFE76B
:104030000198006841F60001C4F20001884209D0ED
:10404000FFE70198006844F20001C4F201018842D0
:1040500019D1FFE70198006880680721C0F20101CB
:1040600008400090009806280CD0FFE70098B0F5B3
:10407000803F07D0FFE701980168086840F0010021
:104080000860FFE706E001980168086840F0010059
:104090000860FFE700208DF80B00FFE79DF80B009C
:1040A00003B070470000000081B0009001B070477D
:1040B00080B584B0039003980068C06802900398AC
:1040C0000068006901909DF804008007002824D54D
:1040D000FFE79DF80800800700281DD5FFE703983B
:1040E00001686FF0020008610399012008770398C6
:1040F00000688069800720B1FFE70398FFF7D4FFCD
:1041000006E0039800F0FCF8039800F0FDF8FFE7E4
:10411000039900200877FFE7FFE79DF804004007B8
:10412000002825D5FFE79DF80800400700281ED588
:10413000FFE7039801686FF004000861039902200B
:10414000087703980068806910F4407F04D0FFE787
:104150000398FFF7A9FF06E0039800F0D1F8039851
:1041600000F0D2F8FFE7039900200877FFE7FFE7A8
:104170009DF804000007002824D5FFE79DF80800FB
:10418000000700281DD5FFE7039801686FF00800BD
:10419000086103990420087703980068C0698007C4
:1041A00020B1FFE70398FFF77FFF06E0039800F0D8
:1041B000A7F8039800F0A8F8FFE703990020087714
:1041C000FFE7FFE79DF80400C006002825D5FFE7BC
:1041D0009DF80800C00600281ED5FFE70398016877
:1041E0006FF01000086103990820087703980068B1
:1041F000C06910F4407F04D0FFE70398FFF754FF35
:1042000006E0039800F07CF8039800F07DF8FFE7E3
:10421000039900200877FFE7FFE79DF80400C00737
:1042200078B1FFE79DF80800C00748B1FFE70398A1
:1042300001686FF001000861039800F069F8FFE77A
:10424000FFE7019800F08000802806D0FFE79DF886
:1042500005008006002810D5FFE79DF8080000063D
:10426000002809D5FFE7039801686FF40250086140
:104270000398FFF735FEFFE7FFE79DF80500C0074D
:1042800080B1FFE79DF808000006002809D5FFE788
:10429000039801686FF4807008610398FFF71CFEB3
:1042A000FFE7FFE79DF804004006002810D5FFE770
:1042B0009DF808004006002809D5FFE7039801682B
:1042C0006FF040000861039800F036F8FFE7FFE761
:1042D0009DF804008006002810D5FFE79DF808002F
:1042E0008006002809D5FFE7039801686FF02000D9
:1042F00008610398FFF7F8FDFFE7FFE704B080BD12
:1043000081B0009001B0704781B0009001B070475B
:1043100080B582B001900198006841F20041C4F27A
:104320000001884203D1FFE7FCF7BAFEFFE702B0C5
:1043300080BD00000000000081B0009001B0704717
:10434000FFE7FEE70000000041F20001C5F2002196
:10435000086820F0010008604FF44030086040F227
:104360008000C2F20040816841F23402C5F20022AE
:10437000116041F24002C5F2002200211160C168C3
:1043800041F23C02C5F20022116041F24402C5F242
:10439000002240F21011C0F2E0111160406841F2B9
:1043A0003801C5F200210860FFE741F24800C5F27C
:1043B00000000068012801D0FFE7F6E741F20001A4
:1043C000C5F20021086840F001000860FFE741F2F3
:1043D0000000C5F200200068C00708B1FFE7F6E75B
:1043E000704700000000000081B08DF803009DF8C8
:1043F000030040F28001C2F20041487401B07047EE
:1044000080B592B041F60040C5F60200402100227E
:10441000FCF71EFEFFE744F2D440C5F60200016837
:1044200041F010010160006800F010001190119837
:10443000FFE740F20010C2F20040019041F200019B
:10444000C5F2000101600021039141608160C160FB
:104450000161416181612B22C2610C22026240F242
:104460000B2242624FF48E72826240F21322C262C9
:104470004FF49272026380F8361080F8351080F89D
:104480003410FCF72DFF04A802903421FCF735F816
:1044900001980299039A04924FF4F07CCDF814C06D
:1044A00006924FF488730793CDF838C00F93022318
:1044B0000893FF2309934FF480630B9305230C9318
:1044C0004FF040430D930A928DF840208DF8412023
:1044D0008DF84220FCF7A4FE0398FFF785FF0398B0
:1044E00000F05EF94FF07F4000F012F84FF0FF301F
:1044F00000F0B2F8FFF728FF41F60040C5F60200D1
:1045000040210122FCF7A4FD12B080BD0000000094
:1045100083B002900020ADF80600ADF80400ADF8BD
:104520000200ADF8000040F28000C2F20040806856
:1045300002281FD1FFE7029800F47800000AADF8C6
:104540000400029800F47C404009ADF802009DF898
:104550000800C008ADF80000BDF80400BDF8021066
:104560000843BDF80010084340F28001C2F2004148
:1045700048606FE040F28000C2F20040806803288B
:104580002FD1FFE79DF80B0020B9FFE70020ADF821
:10459000060004E04FF40040ADF80600FFE7029883
:1045A00000F47800400AADF80400029800F4784066
:1045B0008009ADF802009DF80800C008ADF80000C1
:1045C000BDF80600BDF804100843BDF8021008430A
:1045D000BDF80010084340F28001C2F2004148607B
:1045E00037E040F28000C2F200408068042828D101
:1045F000FFE7029800F07040000CADF8060002984A
:1046000000F47000000BADF80400029800F4704054
:10461000000AADF802009DF808000009ADF800009E
:10462000BDF80600BDF804100843BDF802100843A9
:10463000BDF80010084340F28001C2F2004148601A
:1046400006E0029840F28001C2F200414860FFE7B4
:10465000FFE7FFE703B0704783B002900020ADF89A
:104660000600ADF80400ADF80200ADF8000040F21D
:104670008000C2F20040806802281FD1FFE7029844
:1046800000F47800000AADF80400029800F47C40C1
:104690004009ADF802009DF80800C008ADF8000020
:1046A000BDF80400BDF802100843BDF8001008432F
:1046B00040F28001C2F2004108606FE040F28000E9
:1046C000C2F20040806803282FD1FFE79DF80B005D
:1046D00020B9FFE70020ADF8060004E04FF40040E9
:1046E000ADF80600FFE7029800F47800400AADF844
:1046F0000400029800F478408009ADF802009DF8AB
:104700000800C008ADF80000BDF80600BDF80410B0
:104710000843BDF802100843BDF80010084340F2FA
:104720008001C2F20041086037E040F28000C2F22E
:1047300000408068042828D1FFE7029800F070400C
:10474000000CADF80600029800F47000000BADF804
:104750000400029800F47040000AADF802009DF8D1
:1047600008000009ADF80000BDF80600BDF804100F
:104770000843BDF802100843BDF80010084340F29A
:104780008001C2F20041086006E0029840F2800118
:10479000C2F200410860FFE7FFE7FFE703B07047A0
:1047A00081B08DF8030040F28001C2F200414FF069
:1047B0004040C8600220886088740020087401B0FE
:1047C000704700000000000086B00590049103923D
:1047D0000498406805990968C9680022C0F6FF720C
:1047E000114000EB11400004029005980068039905
:1047F00000EBC111D1F8880000F47040C1F88800C6
:104800000498006805990968C968114000EB1140D7
:1048100001300299084305990968039A01EBC21116
:10482000C1F888000498C06805990968C9686FF3E1
:10483000DF2108440004029005980068039900EB0A
:10484000C111D1F88C0000F47040C1F88C000498BC
:10485000806805990968C9686FF3DF210844013051
:104860000299084305990968039A01EBC211C1F83E
:104870008C0005980068039900EBC111D1F89400F1
:1048800020F00700C1F894000498006905990968B0
:10489000039A01EBC211C1F89400049890F831001A
:1048A00000020290049890F83200000401900498ED
:1048B000806900060090049890F83000029908433F
:1048C000019908430099084305990968039A01EB87
:1048D000C211C1F89C0005980068039900EBC11152
:1048E000D1F8980020F0FF00C1F8980004984069C2
:1048F00005990968039A01EBC211C1F8980005985F
:104900000068039900EBC111D1F8A00040F20772D2
:104910009043C1F8A0000499C869096A0843059941
:104920000968039A01EBC211C1F8A0000498406A1B
:1049300005990968039A01EBC211C1F8AC0004980B
:10494000006918B9FFE70420029023E00498006989
:10495000012803D1FFE7032002901AE004980069C0
:1049600004280FD0FFE70498006902280AD0FFE767
:1049700004980069032805D0FFE704980069072818
:1049800003D1FFE70220029002E001200290FFE73E
:10499000FFE7FFE705980068039900EBC111D1F824
:1049A000B00000F0E020C1F8B00004990B6848683E
:1049B000896A029A5143C01A5043073040EA0140C5
:1049C00005990968039A01EBC211C1F8B000059876
:1049D0000068039900EBC111D1F8B40040F2FF72F6
:1049E0009043C1F8B4000498C06A05990968039A15
:1049F00001EBC211C1F8B40005980068039900EBFF
:104A0000C111D1F8840040F00100C1F8840006B063
:104A1000704700000000000080B586B000200190C3
:104A20000590049003900290FCF77EFE019801210E
:104A30008DF8081002228DF809204FF040420392B1
:104A400018228DF810208DF811008DF81200032225
:104A50008DF813208DF814008DF815008DF81610C0
:104A60008DF8170002A8FCF71FFE0420FCF770FE6B
:104A700006B080BD0000000080B540F29800C2F290
:104A8000004041F20001C5F2002101604FF44031C5
:104A90004160022181600021C160FBF7A9FF18B1CC
:104AA000FFE7FBF789FEFFE780BD00000000000084
:104AB00080B545F2F900C0F6000048F2A462C0F6E5
:104AC0000002002100F0E0FF40F29401C2F2004138
:104AD000086080BD0000000080B592B000201190F9
:104AE00010900F900E900D90FFE744F2E040C5F655
:104AF0000200016841F010010160006800F0100040
:104B00000C900C98FFE7FFE744F2E040C5F6020086
:104B1000016841F004010160006800F004000B909E
:104B20000B98FFE7FFE744F2E040C5F6020001689A
:104B300041F480710160006800F480700A900A9866
:104B4000FFE7FFE744F2E040C5F60200016841F0EC
:104B500020010160006800F0200009900998FFE73B
:104B6000FFE744F2E040C5F60200016841F0800131
:104B70000160006800F0800008900898FFE7FFE7F8
:104B800044F2E040C5F60200016841F00101016015
:104B9000006800F0010007900798FFE7FFE744F284
:104BA000E040C5F60200016841F0020101600068C2
:104BB00000F0020006900698FFE7FFE744F2E040AD
:104BC000C5F60200016841F040010160006800F094
:104BD000400005900598FFE7FFE744F2E040C5F686
:104BE0000200016841F008010160006800F008005F
:104BF00004900498FFE741F60040C5F602000390D8
:104C0000402101220192FCF723FA0398802100221F
:104C10000292FCF71DFA019A02990398C0230D93A2
:104C20000E920F9110910DA9FCF72EF812B080BDD5
:104C3000FFE7FEE700000000FFE7FEE700000000DE
:104C400088B0079006910592079800F0070004903D
:104C50000498C0F10700052803D3FFE70420019062
:104C600004E00498C0F107000190FFE70198039069
:104C700004980430062803D8FFE70020009003E0E2
:104C8000049803380090FFE7009802900698039973
:104C9000012202FA01F101390840029B984005996E
:104CA0009A40013A1140084308B0704700000000E4
:104CB000EFF30980BFF36F8F154B1A681EF0100FCA
:104CC00008BF20ED108A20E9F04F10602DE909009F
:104CD0004FF0500080F31188BFF34F8FBFF36F8FF9
:104CE00002F08EFB4FF0000080F31188BDE8090050
:104CF00019680868B0E8F04F1EF0100F08BFB0EC5C
:104D0000108A80F30988BFF36F8F704700BF00BF20
:104D1000E80200240000000080B586B004900391F2
:104D200000208DF8070044F22840C5F60200006814
:104D300000F00300032804D1FFE701208DF81700DD
:104D4000CBE044F20041C5F60201086820F0806023
:104D50000860FCF79DF90290FFE744F20040C5F6B9
:104D60000200006800F000610020B0EBD16F0CD0B1
:104D7000FFE7FCF78DF90299401A032804D3FFE7F7
:104D800003208DF81700A8E0E7E7FFE744F2284189
:104D9000C5F60201086820F47C30049A126840EAE3
:104DA0000230086004994868D1F808C0CB680A69E5
:104DB00001386FF35F204FF60061CFF6FF7101EB12
:104DC0004C2189B208440021CFF6FF7101EB034169
:104DD00001F4FE0108444FF07F4101EB026101F054
:104DE000FE41084444F23841C5F602010860FFE77D
:104DF00044F22C41C5F602010091086820F0C00081
:104E0000049A526910430860086820F02000049A50
:104E1000926910430860086820F01000086044F2AE
:104E20003C42C5F6020210684FF6F8739843049BA3
:104E3000DB6940EAC3001060086840F010000860B9
:104E4000039848B9FFE744F22C41C5F6020108680F
:104E500040F40020086016E00398012809D1FFE71C
:104E600044F22C41C5F60201086840F48010086045
:104E700008E044F22C41C5F60201086840F4001035
:104E80000860FFE7FFE744F20041C5F60201086849
:104E900040F080600860FCF7FBF80290FFE744F206
:104EA0000040C5F60200006800F000610020B0EB91
:104EB000D16F0CD1FFE7FCF7EBF80299401A0328F9
:104EC00004D3FFE703208DF8170006E0E7E7FFE7CC
:104ED0009DF807008DF81700FFE79DF8170006B052
:104EE00080BD00000000000080B586B004900391F2
:104EF00000208DF8070044F22840C5F60200006843
:104F000000F00300032804D1FFE701208DF817000B
:104F1000CBE044F20041C5F60201086820F0805061
:104F20000860FCF7B5F80290FFE744F20040C5F6D0
:104F30000200006800F000510020B0EB517F0CD05F
:104F4000FFE7FCF7A5F80299401A032804D3FFE70E
:104F500003208DF81700A8E0E7E7FFE744F22841B7
:104F6000C5F60201086820F07C70049A126840EAD5
:104F70000250086004994868D1F808C0CB680A69F3
:104F800001386FF35F204FF60061CFF6FF7101EB40
:104F90004C2189B208440021CFF6FF7101EB034197
:104FA00001F4FE0108444FF07F4101EB026101F082
:104FB000FE41084444F24041C5F602010860FFE7A3
:104FC00044F22C41C5F602010091086820F44060CB
:104FD000049A526910430860086820F40070049A2B
:104FE000926910430860086820F48070086044F2F9
:104FF0004442C5F6020210684FF6F8739843049BCA
:10500000DB6940EAC3001060086840F48070086003
:10501000039848B9FFE744F22C41C5F6020108683D
:1050200040F48000086016E00398012809D1FFE7EA
:1050300044F22C41C5F60201086840F40000086003
:1050400008E044F22C41C5F60201086840F0807087
:105050000860FFE7FFE744F20041C5F60201086877
:1050600040F080500860FCF713F80290FFE744F22C
:105070000040C5F60200006800F000510020B0EBCF
:10508000517F0CD1FFE7FCF703F80299401A03287F
:1050900004D3FFE703208DF8170006E0E7E7FFE7FA
:1050A0009DF807008DF81700FFE79DF8170006B080
:1050B00080BD0000000000000000000000000000B3
:1050C000074B19680868B0E8F04F80F30988BFF310
:1050D0006F8F4FF0000080F31188704700BF00BF52
:1050E000E80200240000000080B56FF004000021F9
:1050F00000F0B2FB80BD000080B582B0019000F0EE
:10510000FFFA014644F63820C2F200400160006810
:1051100000F072FAFFF774F9642002F055F8FFE727
:105120000020CFF6FF70FFF7F3F96420009002F043
:105130004BF84FF0FF20FFF7EBF9009802F044F82E
:10514000FF20CFF60070FFF7E3F9009802F03CF87B
:10515000E6E700000000000080B54EF21000CEF23D
:105160000000006802F034FF012803D0FFE702F0DE
:1051700057FAFFE780BD000080B59EB00BA84C2118
:10518000FBF7BBF9002001900A9009900890079066
:1051900006900590049003900220FCF739FBFFE78E
:1051A0000020029044F61800C5F60200016841F4A0
:1051B00040410160006800F44040029040F22C4001
:1051C000C5F60000016841F001010160006800F0CF
:1051D000010002900298FFE7FFE744F61800C5F6C9
:1051E0000200006800F40050B0F5005F01D0FFE756
:1051F000F3E7FCF761FBFFE7FBF742FF41F2030136
:1052000088420CD8FFE7012048B9FFE744F270411B
:10521000C5F60201086840F01800086008E044F292
:105220007041C5F60201086820F018000860FFE729
:10523000FFE705210B914FF480300C9001200D9079
:105240000220149015901691C021179118900421F6
:1052500019911A9008201B9000201C901D900BA8FB
:10526000FDF7D6FF18B1FFE7FBF7A6FAFFE73F20EF
:105270000390032004900020059008200690402011
:10528000079008904FF4806109910A9003A80421C7
:10529000FDF76EFB18B1FFE7FBF78EFAFFE71EB0D4
:1052A00080BD00000000000081B04EF68851CEF2B3
:1052B0000001086840F47000086042F20000C5F286
:1052C0000020006800F00F0006280AD8FFE742F22D
:1052D0000001C5F200210868072262F3030008609C
:1052E000FFE744F20041C5F60201086840F0010002
:1052F000086044F21042C5F60202002010600868FF
:105300004EF67F52CEF6F6221040086042F20000C0
:10531000C5F20020006800F00F0008280AD3FFE75C
:1053200042F20001C5F200210868072262F303007F
:105330000860FFE744F21841C5F602010020009022
:10534000086044F21C41C5F60201086044F22041A5
:10535000C5F60201086044F22842C5F6020240F296
:105360000021C0F20221116044F22C42C5F6020273
:105370000021C0F2FF11116044F23042C5F6020272
:1053800040F28021C0F20111116044F23442C5F6AE
:105390000202106044F23842C5F60202116044F283
:1053A0003C42C5F60202106044F24042C5F60202D9
:1053B000116044F24441C5F60201086044F2004223
:1053C000C5F60202116821F48021116044F26041A7
:1053D000C5F60201086041F20001C5F60041096806
:1053E000B0EB517F07D1FFE748F20811C5F2001179
:1053F00001200860FFE744F2D440C5F602000068CF
:10540000C004002814D4FFE744F2D441C5F60201D9
:10541000086840F48050086044F20002C5F200229F
:1054200043F2D2001060086820F480500860FFE763
:1054300001B070470000000080B540F2A810C2F231
:105440000040FEF735FE80BD83B0029001910298C6
:105450000068009002980021C4F20101884225D022
:10546000FFE70298B0F1804F20D0FFE7029840F2AA
:105470000041C4F20001884218D0FFE7029840F6CC
:105480000001C4F20001884210D0FFE7029840F604
:105490000041C4F20001884208D0FFE7029840F2C0
:1054A0000041C4F2010188420AD1FFE7009820F0D0
:1054B0007000009001984168009808430090FFE751
:1054C00002980021C4F2010188423DD0FFE7029812
:1054D000B0F1804F38D0FFE7029840F20041C4F2AB
:1054E0000001884230D0FFE7029840F60001C4F284
:1054F0000001884228D0FFE7029840F60041C4F23C
:105500000001884220D0FFE7029840F20041C4F237
:105510000101884218D0FFE7029844F20001C4F26A
:105520000101884210D0FFE7029844F20041C4F222
:105530000101884208D0FFE7029844F60001C4F256
:10554000010188420AD1FFE7009820F440700090E2
:105550000198C168009808430090FFE7009820F088
:105560008000019949690843009001988068029978
:10557000C862019800680299886202980021C4F20A
:105580000101884220D0FFE7029840F20041C4F2B6
:105590000101884218D0FFE7029844F20001C4F2EA
:1055A0000101884210D0FFE7029844F20041C4F2A2
:1055B0000101884208D0FFE7029844F60001C4F2D6
:1055C0000101884205D1FFE701980069029908634B
:1055D000FFE70299086840F0040008600299012082
:1055E000486100980299086003B07047000000000D
:1055F000FFE7FEE70000000080B586B005900020C0
:105600000090049005994A68012103911160059A60
:105610005368102201925A60059A52689160059968
:105620004968C8600599086849684FF48052029239
:10563000FEF70EFC0398FBF75BFA0098019B029AB9
:105640000399DDF814C0DCF804E04FF0020CCEF84A
:1056500000C0DDF814C0DCF804C0CCF80430059BB1
:105660005B68996005994968C86005990868496848
:10567000FEF7EEFB0398FBF73BFA00980199029ABC
:10568000059BD3F804C00323CCF80030059B5B686E
:10569000596005994B680821996005994968C86067
:1056A000059908684968FEF7D3FB0398FBF720FAD1
:1056B0000199029A039840F231230493059BD3F891
:1056C00004C00423CCF80030059B5B685960059941
:1056D00049688860049805994968C8600599086810
:1056E0004968FEF7B5FB0398FBF702FA05980068D6
:1056F00040F29631FEF77CFB06B080BD0000000052
:1057000080B58CB03420FAF755FE0A900A9818B983
:10571000FFE700200B9057E00020019009900890CF
:10572000079006900590049003900A9A44F2401165
:10573000C5F2002111600A9948600A9A012191601E
:105740000A9A0821D1600A9A102111610A9A40210F
:1057500051610A9A4FF4C07191610A99C8610A991E
:105760004FF4006008620A994FF4805048620A9929
:105770004FF4005088620220039007210491042214
:10578000059206910790089009900A9803A9FEF7E0
:10579000EBFA30B1FFE70A98FAF73BFE00200B90D6
:1057A00012E00820FAF706FE0290029830B9FFE7EF
:1057B0000A98FAF72EFE00200B9005E00A9802994D
:1057C000086002980B90FFE70B980CB080BD0000BA
:1057D00081B0ADF80200BDF9020000280ED4FFE749
:1057E000BDF9021001F01F02012090404A094EF25B
:1057F0000011CEF2000141F82200FFE701B070472E
:105800004EF60C50CEF200000068C0F30220704744
:1058100082B0ADF806000091BDF9060000280AD458
:10582000FFE700980001BDF906104EF20042CEF2EB
:10583000000288540BE000980001BDF8061001F04A
:105840000F014EF61452CEF200028854FFE702B068
:10585000704700000000000082B0ADF80600009123
:10586000BDF9060000280AD4FFE700980001BDF941
:1058700006104EF20042CEF2000288540BE000986F
:105880000001BDF8061001F00F014EF61452CEF2E1
:1058900000028854FFE702B07047000000000000DB
:1058A00083B00290029800F0070000904EF60C5171
:1058B000CEF200010868019001984FF6FF021040F7
:1058C00001900198009A40EA02200022C0F2FA52A8
:1058D000104301900198086003B070470000000079
:1058E00080B584B000200090FFF796F84EF6145073
:1058F000CEF2000000688003002801D5FFE71AE01F
:10590000BFF34F8FBFF36F8F4EF65071CEF2000191
:1059100000200860BFF34F8FBFF36F8F4EF6145116
:10592000CEF20001086840F400300860BFF34F8FEA
:10593000BFF36F8FFFE74EF61450CEF20000006801
:10594000C003002801D5FFE73CE04EF68451CEF2BB
:10595000000100200860BFF34F8F4EF68050CEF25A
:105960000000006803900398C0F34E300290FFE7F8
:105970000398C0F3C9000190FFE7029901988007DE
:1059800061F34D104EF66071CEF20001086001988F
:10599000411E01910028F0D1FFE70298411E0291BB
:1059A0000028E5D1FFE7BFF34F8F4EF61451CEF23A
:1059B0000001086840F480300860BFF34F8FBFF3E8
:1059C0006F8FFFE7FBF77CFBFFF7D6FBFFF784F851
:1059D000FFF752F800F008F8FFF76AF800F028F82F
:1059E000FFE7FEE70000000082B0EFF305800190C2
:1059F000019820B1FFE76FF00500009014E040F23D
:105A00007C00C2F20040006848B9FFE740F27C0128
:105A1000C2F20041012008600020009003E04FF036
:105A2000FF300090FFE7FFE7009802B070470000EA
:105A300080B582B0EFF305800190019820B1FFE7B7
:105A40006FF00500009019E040F27C00C2F20040C7
:105A5000006801280DD1FFE7FFF746FB40F27C010B
:105A6000C2F200410220086001F052FC00200090C8
:105A700003E04FF0FF300090FFE7FFE7009802B02F
:105A800080BD000000000000B0B58EB00B900A9100
:105A9000099200200690EFF305800D900D980028E4
:105AA00040F09980FFE70B98002800F09480FFE712
:105AB0008020079018200590002008904FF0FF30BC
:105AC0000490099800284DD0FFE70998006820B19C
:105AD000FFE7099800680890FFE70998806920B1FE
